{
  "_format": "hh-sol-artifact-1",
  "contractName": "NftContract",
  "sourceName": "contracts/NftContract.sol",
  "abi": [
    {
      "inputs": [
        {
          "internalType": "string",
          "name": "baseUri_",
          "type": "string"
        }
      ],
      "stateMutability": "nonpayable",
      "type": "constructor"
    },
    {
      "anonymous": false,
      "inputs": [
        {
          "indexed": true,
          "internalType": "address",
          "name": "account",
          "type": "address"
        },
        {
          "indexed": true,
          "internalType": "address",
          "name": "operator",
          "type": "address"
        },
        {
          "indexed": false,
          "internalType": "bool",
          "name": "approved",
          "type": "bool"
        }
      ],
      "name": "ApprovalForAll",
      "type": "event"
    },
    {
      "anonymous": false,
      "inputs": [
        {
          "indexed": true,
          "internalType": "address",
          "name": "account",
          "type": "address"
        },
        {
          "indexed": false,
          "internalType": "uint256",
          "name": "tokenId",
          "type": "uint256"
        },
        {
          "indexed": false,
          "internalType": "uint256",
          "name": "amount",
          "type": "uint256"
        }
      ],
      "name": "Minted",
      "type": "event"
    },
    {
      "anonymous": false,
      "inputs": [
        {
          "indexed": true,
          "internalType": "address",
          "name": "previousOwner",
          "type": "address"
        },
        {
          "indexed": true,
          "internalType": "address",
          "name": "newOwner",
          "type": "address"
        }
      ],
      "name": "OwnershipTransferred",
      "type": "event"
    },
    {
      "anonymous": false,
      "inputs": [
        {
          "indexed": false,
          "internalType": "address",
          "name": "account",
          "type": "address"
        }
      ],
      "name": "Paused",
      "type": "event"
    },
    {
      "anonymous": false,
      "inputs": [
        {
          "indexed": true,
          "internalType": "address",
          "name": "operator",
          "type": "address"
        },
        {
          "indexed": true,
          "internalType": "address",
          "name": "from",
          "type": "address"
        },
        {
          "indexed": true,
          "internalType": "address",
          "name": "to",
          "type": "address"
        },
        {
          "indexed": false,
          "internalType": "uint256[]",
          "name": "ids",
          "type": "uint256[]"
        },
        {
          "indexed": false,
          "internalType": "uint256[]",
          "name": "values",
          "type": "uint256[]"
        }
      ],
      "name": "TransferBatch",
      "type": "event"
    },
    {
      "anonymous": false,
      "inputs": [
        {
          "indexed": true,
          "internalType": "address",
          "name": "operator",
          "type": "address"
        },
        {
          "indexed": true,
          "internalType": "address",
          "name": "from",
          "type": "address"
        },
        {
          "indexed": true,
          "internalType": "address",
          "name": "to",
          "type": "address"
        },
        {
          "indexed": false,
          "internalType": "uint256",
          "name": "id",
          "type": "uint256"
        },
        {
          "indexed": false,
          "internalType": "uint256",
          "name": "value",
          "type": "uint256"
        }
      ],
      "name": "TransferSingle",
      "type": "event"
    },
    {
      "anonymous": false,
      "inputs": [
        {
          "indexed": false,
          "internalType": "string",
          "name": "value",
          "type": "string"
        },
        {
          "indexed": true,
          "internalType": "uint256",
          "name": "id",
          "type": "uint256"
        }
      ],
      "name": "URI",
      "type": "event"
    },
    {
      "anonymous": false,
      "inputs": [
        {
          "indexed": false,
          "internalType": "address",
          "name": "account",
          "type": "address"
        }
      ],
      "name": "Unpaused",
      "type": "event"
    },
    {
      "inputs": [
        {
          "internalType": "string",
          "name": "",
          "type": "string"
        }
      ],
      "name": "_revealTimes",
      "outputs": [
        {
          "internalType": "uint256",
          "name": "",
          "type": "uint256"
        }
      ],
      "stateMutability": "view",
      "type": "function"
    },
    {
      "inputs": [
        {
          "internalType": "address",
          "name": "admin",
          "type": "address"
        }
      ],
      "name": "addAdmin",
      "outputs": [],
      "stateMutability": "nonpayable",
      "type": "function"
    },
    {
      "inputs": [
        {
          "internalType": "address",
          "name": "account",
          "type": "address"
        },
        {
          "internalType": "uint256",
          "name": "id",
          "type": "uint256"
        }
      ],
      "name": "balanceOf",
      "outputs": [
        {
          "internalType": "uint256",
          "name": "",
          "type": "uint256"
        }
      ],
      "stateMutability": "view",
      "type": "function"
    },
    {
      "inputs": [
        {
          "internalType": "address[]",
          "name": "accounts",
          "type": "address[]"
        },
        {
          "internalType": "uint256[]",
          "name": "ids",
          "type": "uint256[]"
        }
      ],
      "name": "balanceOfBatch",
      "outputs": [
        {
          "internalType": "uint256[]",
          "name": "",
          "type": "uint256[]"
        }
      ],
      "stateMutability": "view",
      "type": "function"
    },
    {
      "inputs": [],
      "name": "blockTimestamp",
      "outputs": [
        {
          "internalType": "uint256",
          "name": "",
          "type": "uint256"
        }
      ],
      "stateMutability": "view",
      "type": "function"
    },
    {
      "inputs": [
        {
          "internalType": "address",
          "name": "account",
          "type": "address"
        }
      ],
      "name": "isAdmin",
      "outputs": [
        {
          "internalType": "bool",
          "name": "",
          "type": "bool"
        }
      ],
      "stateMutability": "view",
      "type": "function"
    },
    {
      "inputs": [
        {
          "internalType": "address",
          "name": "account",
          "type": "address"
        },
        {
          "internalType": "address",
          "name": "operator",
          "type": "address"
        }
      ],
      "name": "isApprovedForAll",
      "outputs": [
        {
          "internalType": "bool",
          "name": "",
          "type": "bool"
        }
      ],
      "stateMutability": "view",
      "type": "function"
    },
    {
      "inputs": [
        {
          "internalType": "address",
          "name": "account",
          "type": "address"
        },
        {
          "internalType": "uint256",
          "name": "tokenId",
          "type": "uint256"
        },
        {
          "internalType": "uint256",
          "name": "amount",
          "type": "uint256"
        },
        {
          "internalType": "string",
          "name": "_tokenType",
          "type": "string"
        }
      ],
      "name": "mint",
      "outputs": [],
      "stateMutability": "nonpayable",
      "type": "function"
    },
    {
      "inputs": [],
      "name": "owner",
      "outputs": [
        {
          "internalType": "address",
          "name": "",
          "type": "address"
        }
      ],
      "stateMutability": "view",
      "type": "function"
    },
    {
      "inputs": [],
      "name": "pause",
      "outputs": [],
      "stateMutability": "nonpayable",
      "type": "function"
    },
    {
      "inputs": [],
      "name": "paused",
      "outputs": [
        {
          "internalType": "bool",
          "name": "",
          "type": "bool"
        }
      ],
      "stateMutability": "view",
      "type": "function"
    },
    {
      "inputs": [
        {
          "internalType": "address",
          "name": "admin",
          "type": "address"
        }
      ],
      "name": "removeAdmin",
      "outputs": [],
      "stateMutability": "nonpayable",
      "type": "function"
    },
    {
      "inputs": [],
      "name": "renounceOwnership",
      "outputs": [],
      "stateMutability": "nonpayable",
      "type": "function"
    },
    {
      "inputs": [
        {
          "internalType": "address",
          "name": "from",
          "type": "address"
        },
        {
          "internalType": "address",
          "name": "to",
          "type": "address"
        },
        {
          "internalType": "uint256[]",
          "name": "ids",
          "type": "uint256[]"
        },
        {
          "internalType": "uint256[]",
          "name": "amounts",
          "type": "uint256[]"
        },
        {
          "internalType": "bytes",
          "name": "data",
          "type": "bytes"
        }
      ],
      "name": "safeBatchTransferFrom",
      "outputs": [],
      "stateMutability": "nonpayable",
      "type": "function"
    },
    {
      "inputs": [
        {
          "internalType": "address",
          "name": "from",
          "type": "address"
        },
        {
          "internalType": "address",
          "name": "to",
          "type": "address"
        },
        {
          "internalType": "uint256",
          "name": "id",
          "type": "uint256"
        },
        {
          "internalType": "uint256",
          "name": "amount",
          "type": "uint256"
        },
        {
          "internalType": "bytes",
          "name": "data",
          "type": "bytes"
        }
      ],
      "name": "safeTransferFrom",
      "outputs": [],
      "stateMutability": "nonpayable",
      "type": "function"
    },
    {
      "inputs": [
        {
          "internalType": "address",
          "name": "operator",
          "type": "address"
        },
        {
          "internalType": "bool",
          "name": "approved",
          "type": "bool"
        }
      ],
      "name": "setApprovalForAll",
      "outputs": [],
      "stateMutability": "nonpayable",
      "type": "function"
    },
    {
      "inputs": [
        {
          "internalType": "string",
          "name": "baseUri_",
          "type": "string"
        }
      ],
      "name": "setBaseURI",
      "outputs": [],
      "stateMutability": "nonpayable",
      "type": "function"
    },
    {
      "inputs": [
        {
          "internalType": "string",
          "name": "_tokenType",
          "type": "string"
        },
        {
          "internalType": "uint256",
          "name": "revealTime",
          "type": "uint256"
        }
      ],
      "name": "setRevealTime",
      "outputs": [],
      "stateMutability": "nonpayable",
      "type": "function"
    },
    {
      "inputs": [
        {
          "internalType": "bytes4",
          "name": "interfaceId",
          "type": "bytes4"
        }
      ],
      "name": "supportsInterface",
      "outputs": [
        {
          "internalType": "bool",
          "name": "",
          "type": "bool"
        }
      ],
      "stateMutability": "view",
      "type": "function"
    },
    {
      "inputs": [
        {
          "internalType": "uint256",
          "name": "tokenId",
          "type": "uint256"
        }
      ],
      "name": "tokenType",
      "outputs": [
        {
          "internalType": "string",
          "name": "",
          "type": "string"
        }
      ],
      "stateMutability": "view",
      "type": "function"
    },
    {
      "inputs": [
        {
          "internalType": "uint256",
          "name": "tokenId",
          "type": "uint256"
        }
      ],
      "name": "totalSupply",
      "outputs": [
        {
          "internalType": "uint256",
          "name": "",
          "type": "uint256"
        }
      ],
      "stateMutability": "view",
      "type": "function"
    },
    {
      "inputs": [
        {
          "internalType": "address",
          "name": "newOwner",
          "type": "address"
        }
      ],
      "name": "transferOwnership",
      "outputs": [],
      "stateMutability": "nonpayable",
      "type": "function"
    },
    {
      "inputs": [],
      "name": "unpause",
      "outputs": [],
      "stateMutability": "nonpayable",
      "type": "function"
    },
    {
      "inputs": [
        {
          "internalType": "uint256",
          "name": "tokenId",
          "type": "uint256"
        }
      ],
      "name": "uri",
      "outputs": [
        {
          "internalType": "string",
          "name": "",
          "type": "string"
        }
      ],
      "stateMutability": "view",
      "type": "function"
    }
  ],
  "bytecode": "0x60806040523480156200001157600080fd5b506040516200480238038062004802833981810160405281019062000037919062000562565b604051806020016040528060008152506200005881620002ec60201b60201c565b506000600360006101000a81548160ff02191690831515021790555062000094620000886200030160201b60201c565b6200030960201b60201c565b8060089081620000a59190620007fe565b506001600960003373ffffffffffffffffffffffffffffffffffffffff1673ffffffffffffffffffffffffffffffffffffffff16815260200190815260200160002060006101000a81548160ff021916908315150217905550604051806080016040528060538152602001620047af60539139600660008081526020019081526020016000209081620001399190620007fe565b50604051806080016040528060538152602001620046636053913960066000600181526020019081526020016000209081620001769190620007fe565b50604051806080016040528060538152602001620046106053913960066000600281526020019081526020016000209081620001b39190620007fe565b506040518060800160405280605381526020016200456a6053913960066000600381526020019081526020016000209081620001f09190620007fe565b50604051806080016040528060538152602001620045bd60539139600660006004815260200190815260200160002090816200022d9190620007fe565b506040518060800160405280605381526020016200475c60539139600660006005815260200190815260200160002090816200026a9190620007fe565b50604051806080016040528060538152602001620047096053913960066000600681526020019081526020016000209081620002a79190620007fe565b50604051806080016040528060538152602001620046b66053913960066000600781526020019081526020016000209081620002e49190620007fe565b5050620008e5565b8060029081620002fd9190620007fe565b5050565b600033905090565b6000600360019054906101000a900473ffffffffffffffffffffffffffffffffffffffff16905081600360016101000a81548173ffffffffffffffffffffffffffffffffffffffff021916908373ffffffffffffffffffffffffffffffffffffffff1602179055508173ffffffffffffffffffffffffffffffffffffffff168173ffffffffffffffffffffffffffffffffffffffff167f8be0079c531659141344cd1fd0a4f28419497f9722a3daafe3b4186f6b6457e060405160405180910390a35050565b6000604051905090565b600080fd5b600080fd5b600080fd5b600080fd5b6000601f19601f8301169050919050565b7f4e487b7100000000000000000000000000000000000000000000000000000000600052604160045260246000fd5b6200043882620003ed565b810181811067ffffffffffffffff821117156200045a5762000459620003fe565b5b80604052505050565b60006200046f620003cf565b90506200047d82826200042d565b919050565b600067ffffffffffffffff821115620004a0576200049f620003fe565b5b620004ab82620003ed565b9050602081019050919050565b60005b83811015620004d8578082015181840152602081019050620004bb565b60008484015250505050565b6000620004fb620004f58462000482565b62000463565b9050828152602081018484840111156200051a5762000519620003e8565b5b62000527848285620004b8565b509392505050565b600082601f830112620005475762000546620003e3565b5b815162000559848260208601620004e4565b91505092915050565b6000602082840312156200057b576200057a620003d9565b5b600082015167ffffffffffffffff8111156200059c576200059b620003de565b5b620005aa848285016200052f565b91505092915050565b600081519050919050565b7f4e487b7100000000000000000000000000000000000000000000000000000000600052602260045260246000fd5b600060028204905060018216806200060657607f821691505b6020821081036200061c576200061b620005be565b5b50919050565b60008190508160005260206000209050919050565b60006020601f8301049050919050565b600082821b905092915050565b600060088302620006867fffffffffffffffffffffffffffffffffffffffffffffffffffffffffffffffff8262000647565b62000692868362000647565b95508019841693508086168417925050509392505050565b6000819050919050565b6000819050919050565b6000620006df620006d9620006d384620006aa565b620006b4565b620006aa565b9050919050565b6000819050919050565b620006fb83620006be565b620007136200070a82620006e6565b84845462000654565b825550505050565b600090565b6200072a6200071b565b62000737818484620006f0565b505050565b5b818110156200075f576200075360008262000720565b6001810190506200073d565b5050565b601f821115620007ae57620007788162000622565b620007838462000637565b8101602085101562000793578190505b620007ab620007a28562000637565b8301826200073c565b50505b505050565b600082821c905092915050565b6000620007d360001984600802620007b3565b1980831691505092915050565b6000620007ee8383620007c0565b9150826002028217905092915050565b6200080982620005b3565b67ffffffffffffffff811115620008255762000824620003fe565b5b620008318254620005ed565b6200083e82828562000763565b600060209050601f83116001811462000876576000841562000861578287015190505b6200086d8582620007e0565b865550620008dd565b601f198416620008868662000622565b60005b82811015620008b05784890151825560018201915060208501945060208101905062000889565b86831015620008d05784890151620008cc601f891682620007c0565b8355505b6001600288020188555050505b505050505050565b613c7580620008f56000396000f3fe608060405234801561001057600080fd5b50600436106101575760003560e01c806370480275116100c3578063bb7fde711161007c578063bb7fde711461039c578063bd85b039146103b8578063e6c3b1f6146103e8578063e985e9c514610418578063f242432a14610448578063f2fde38b1461046457610157565b80637048027514610314578063715018a6146103305780638456cb591461033a5780638da5cb5b14610344578063a22cb46514610362578063adb618321461037e57610157565b80632eb2c2d6116101155780632eb2c2d6146102685780633f4ba83a146102845780634e1273f41461028e57806355f804b3146102be5780635c975abb146102da5780636e1c0ba6146102f857610157565b8062fdd58e1461015c57806301ffc9a71461018c5780630e89341c146101bc5780631785f53c146101ec57806324d7806c146102085780632cfed10d14610238575b600080fd5b61017660048036038101906101719190612102565b610480565b6040516101839190612151565b60405180910390f35b6101a660048036038101906101a191906121c4565b610548565b6040516101b3919061220c565b60405180910390f35b6101d660048036038101906101d19190612227565b61062a565b6040516101e391906122e4565b60405180910390f35b61020660048036038101906102019190612306565b610769565b005b610222600480360381019061021d9190612306565b61083a565b60405161022f919061220c565b60405180910390f35b610252600480360381019061024d9190612468565b610890565b60405161025f9190612151565b60405180910390f35b610282600480360381019061027d919061261a565b6108be565b005b61028c61095f565b005b6102a860048036038101906102a391906127ac565b610971565b6040516102b591906128e2565b60405180910390f35b6102d860048036038101906102d39190612468565b610a8a565b005b6102e2610aa5565b6040516102ef919061220c565b60405180910390f35b610312600480360381019061030d9190612904565b610abc565b005b61032e60048036038101906103299190612306565b610b6f565b005b610338610bd2565b005b610342610be6565b005b61034c610bf8565b604051610359919061296f565b60405180910390f35b61037c600480360381019061037791906129b6565b610c22565b005b610386610c38565b6040516103939190612151565b60405180910390f35b6103b660048036038101906103b191906129f6565b610c40565b005b6103d260048036038101906103cd9190612227565b610d40565b6040516103df9190612151565b60405180910390f35b61040260048036038101906103fd9190612227565b610d5d565b60405161040f91906122e4565b60405180910390f35b610432600480360381019061042d9190612a79565b610e02565b60405161043f919061220c565b60405180910390f35b610462600480360381019061045d9190612ab9565b610e96565b005b61047e60048036038101906104799190612306565b610f37565b005b60008073ffffffffffffffffffffffffffffffffffffffff168373ffffffffffffffffffffffffffffffffffffffff16036104f0576040517f08c379a00000000000000000000000000000000000000000000000000000000081526004016104e790612bc2565b60405180910390fd5b60008083815260200190815260200160002060008473ffffffffffffffffffffffffffffffffffffffff1673ffffffffffffffffffffffffffffffffffffffff16815260200190815260200160002054905092915050565b60007fd9b67a26000000000000000000000000000000000000000000000000000000007bffffffffffffffffffffffffffffffffffffffffffffffffffffffff1916827bffffffffffffffffffffffffffffffffffffffffffffffffffffffff1916148061061357507f0e89341c000000000000000000000000000000000000000000000000000000007bffffffffffffffffffffffffffffffffffffffffffffffffffffffff1916827bffffffffffffffffffffffffffffffffffffffffffffffffffffffff1916145b80610623575061062282610fba565b5b9050919050565b606060006007600560008581526020019081526020016000206040516106509190612ce5565b90815260200160405180910390205490504281118061066f5750600081145b1561068c5760405180602001604052806000815250915050610764565b60006008805461069b90612c11565b90501180156106aa5750600883105b6106c35760405180602001604052806000815250610760565b6006600084815260200190815260200160002080546106e190612c11565b80601f016020809104026020016040519081016040528092919081815260200182805461070d90612c11565b801561075a5780601f1061072f5761010080835404028352916020019161075a565b820191906000526020600020905b81548152906001019060200180831161073d57829003601f168201915b50505050505b9150505b919050565b610771611024565b3373ffffffffffffffffffffffffffffffffffffffff168173ffffffffffffffffffffffffffffffffffffffff16036107df576040517f08c379a00000000000000000000000000000000000000000000000000000000081526004016107d690612d6e565b60405180910390fd5b6000600960008373ffffffffffffffffffffffffffffffffffffffff1673ffffffffffffffffffffffffffffffffffffffff16815260200190815260200160002060006101000a81548160ff02191690831515021790555050565b6000600960008373ffffffffffffffffffffffffffffffffffffffff1673ffffffffffffffffffffffffffffffffffffffff16815260200190815260200160002060009054906101000a900460ff169050919050565b6007818051602081018201805184825260208301602085012081835280955050505050506000915090505481565b6108c66110a2565b73ffffffffffffffffffffffffffffffffffffffff168573ffffffffffffffffffffffffffffffffffffffff16148061090c575061090b856109066110a2565b610e02565b5b61094b576040517f08c379a000000000000000000000000000000000000000000000000000000000815260040161094290612e00565b60405180910390fd5b61095885858585856110aa565b5050505050565b610967611024565b61096f6113cb565b565b606081518351146109b7576040517f08c379a00000000000000000000000000000000000000000000000000000000081526004016109ae90612e92565b60405180910390fd5b6000835167ffffffffffffffff8111156109d4576109d361233d565b5b604051908082528060200260200182016040528015610a025781602001602082028036833780820191505090505b50905060005b8451811015610a7f57610a4f858281518110610a2757610a26612eb2565b5b6020026020010151858381518110610a4257610a41612eb2565b5b6020026020010151610480565b828281518110610a6257610a61612eb2565b5b60200260200101818152505080610a7890612f10565b9050610a08565b508091505092915050565b610a92611024565b8060089081610aa191906130ef565b5050565b6000600360009054906101000a900460ff16905090565b600960003373ffffffffffffffffffffffffffffffffffffffff1673ffffffffffffffffffffffffffffffffffffffff16815260200190815260200160002060009054906101000a900460ff16610b48576040517f08c379a0000000000000000000000000000000000000000000000000000000008152600401610b3f90613233565b60405180910390fd5b80600783604051610b599190613284565b9081526020016040518091039020819055505050565b610b77611024565b6001600960008373ffffffffffffffffffffffffffffffffffffffff1673ffffffffffffffffffffffffffffffffffffffff16815260200190815260200160002060006101000a81548160ff02191690831515021790555050565b610bda611024565b610be4600061142e565b565b610bee611024565b610bf66114f4565b565b6000600360019054906101000a900473ffffffffffffffffffffffffffffffffffffffff16905090565b610c34610c2d6110a2565b8383611557565b5050565b600042905090565b6000815111610c84576040517f08c379a0000000000000000000000000000000000000000000000000000000008152600401610c7b9061330d565b60405180910390fd5b610c9f848484604051806020016040528060008152506116c3565b81600460008581526020019081526020016000206000828254610cc2919061332d565b9250508190555080600560008581526020019081526020016000209081610ce991906130ef565b508373ffffffffffffffffffffffffffffffffffffffff167f25b428dfde728ccfaddad7e29e4ac23c24ed7fd1a6e3e3f91894a9a073f5dfff8484604051610d32929190613361565b60405180910390a250505050565b600060046000838152602001908152602001600020549050919050565b6060600560008381526020019081526020016000208054610d7d90612c11565b80601f0160208091040260200160405190810160405280929190818152602001828054610da990612c11565b8015610df65780601f10610dcb57610100808354040283529160200191610df6565b820191906000526020600020905b815481529060010190602001808311610dd957829003601f168201915b50505050509050919050565b6000600160008473ffffffffffffffffffffffffffffffffffffffff1673ffffffffffffffffffffffffffffffffffffffff16815260200190815260200160002060008373ffffffffffffffffffffffffffffffffffffffff1673ffffffffffffffffffffffffffffffffffffffff16815260200190815260200160002060009054906101000a900460ff16905092915050565b610e9e6110a2565b73ffffffffffffffffffffffffffffffffffffffff168573ffffffffffffffffffffffffffffffffffffffff161480610ee45750610ee385610ede6110a2565b610e02565b5b610f23576040517f08c379a0000000000000000000000000000000000000000000000000000000008152600401610f1a90612e00565b60405180910390fd5b610f308585858585611873565b5050505050565b610f3f611024565b600073ffffffffffffffffffffffffffffffffffffffff168173ffffffffffffffffffffffffffffffffffffffff1603610fae576040517f08c379a0000000000000000000000000000000000000000000000000000000008152600401610fa5906133fc565b60405180910390fd5b610fb78161142e565b50565b60007f01ffc9a7000000000000000000000000000000000000000000000000000000007bffffffffffffffffffffffffffffffffffffffffffffffffffffffff1916827bffffffffffffffffffffffffffffffffffffffffffffffffffffffff1916149050919050565b61102c6110a2565b73ffffffffffffffffffffffffffffffffffffffff1661104a610bf8565b73ffffffffffffffffffffffffffffffffffffffff16146110a0576040517f08c379a000000000000000000000000000000000000000000000000000000000815260040161109790613468565b60405180910390fd5b565b600033905090565b81518351146110ee576040517f08c379a00000000000000000000000000000000000000000000000000000000081526004016110e5906134fa565b60405180910390fd5b600073ffffffffffffffffffffffffffffffffffffffff168473ffffffffffffffffffffffffffffffffffffffff160361115d576040517f08c379a00000000000000000000000000000000000000000000000000000000081526004016111549061358c565b60405180910390fd5b60006111676110a2565b9050611177818787878787611b0e565b60005b845181101561132857600085828151811061119857611197612eb2565b5b6020026020010151905060008583815181106111b7576111b6612eb2565b5b60200260200101519050600080600084815260200190815260200160002060008b73ffffffffffffffffffffffffffffffffffffffff1673ffffffffffffffffffffffffffffffffffffffff16815260200190815260200160002054905081811015611258576040517f08c379a000000000000000000000000000000000000000000000000000000000815260040161124f9061361e565b60405180910390fd5b81810360008085815260200190815260200160002060008c73ffffffffffffffffffffffffffffffffffffffff1673ffffffffffffffffffffffffffffffffffffffff168152602001908152602001600020819055508160008085815260200190815260200160002060008b73ffffffffffffffffffffffffffffffffffffffff1673ffffffffffffffffffffffffffffffffffffffff168152602001908152602001600020600082825461130d919061332d565b925050819055505050508061132190612f10565b905061117a565b508473ffffffffffffffffffffffffffffffffffffffff168673ffffffffffffffffffffffffffffffffffffffff168273ffffffffffffffffffffffffffffffffffffffff167f4a39dc06d4c0dbc64b70af90fd698a233a518aa5d07e595d983b8c0526c8f7fb878760405161139f92919061363e565b60405180910390a46113b5818787878787611b6c565b6113c3818787878787611b74565b505050505050565b6113d3611d4b565b6000600360006101000a81548160ff0219169083151502179055507f5db9ee0a495bf2e6ff9c91a7834c1ba4fdd244a5e8aa4e537bd38aeae4b073aa6114176110a2565b604051611424919061296f565b60405180910390a1565b6000600360019054906101000a900473ffffffffffffffffffffffffffffffffffffffff16905081600360016101000a81548173ffffffffffffffffffffffffffffffffffffffff021916908373ffffffffffffffffffffffffffffffffffffffff1602179055508173ffffffffffffffffffffffffffffffffffffffff168173ffffffffffffffffffffffffffffffffffffffff167f8be0079c531659141344cd1fd0a4f28419497f9722a3daafe3b4186f6b6457e060405160405180910390a35050565b6114fc611d94565b6001600360006101000a81548160ff0219169083151502179055507f62e78cea01bee320cd4e420270b5ea74000d11b0c9f74754ebdbfc544b05a2586115406110a2565b60405161154d919061296f565b60405180910390a1565b8173ffffffffffffffffffffffffffffffffffffffff168373ffffffffffffffffffffffffffffffffffffffff16036115c5576040517f08c379a00000000000000000000000000000000000000000000000000000000081526004016115bc906136e7565b60405180910390fd5b80600160008573ffffffffffffffffffffffffffffffffffffffff1673ffffffffffffffffffffffffffffffffffffffff16815260200190815260200160002060008473ffffffffffffffffffffffffffffffffffffffff1673ffffffffffffffffffffffffffffffffffffffff16815260200190815260200160002060006101000a81548160ff0219169083151502179055508173ffffffffffffffffffffffffffffffffffffffff168373ffffffffffffffffffffffffffffffffffffffff167f17307eab39ab6107e8899845ad3d59bd9653f200f220920489ca2b5937696c31836040516116b6919061220c565b60405180910390a3505050565b600073ffffffffffffffffffffffffffffffffffffffff168473ffffffffffffffffffffffffffffffffffffffff1603611732576040517f08c379a000000000000000000000000000000000000000000000000000000000815260040161172990613779565b60405180910390fd5b600061173c6110a2565b9050600061174985611dde565b9050600061175685611dde565b905061176783600089858589611b0e565b8460008088815260200190815260200160002060008973ffffffffffffffffffffffffffffffffffffffff1673ffffffffffffffffffffffffffffffffffffffff16815260200190815260200160002060008282546117c6919061332d565b925050819055508673ffffffffffffffffffffffffffffffffffffffff16600073ffffffffffffffffffffffffffffffffffffffff168473ffffffffffffffffffffffffffffffffffffffff167fc3d58168c5ae7397731d063d5bbf3d657854427343f4c083240f7aacaa2d0f628989604051611844929190613361565b60405180910390a461185b83600089858589611b6c565b61186a83600089898989611e58565b50505050505050565b600073ffffffffffffffffffffffffffffffffffffffff168473ffffffffffffffffffffffffffffffffffffffff16036118e2576040517f08c379a00000000000000000000000000000000000000000000000000000000081526004016118d99061358c565b60405180910390fd5b60006118ec6110a2565b905060006118f985611dde565b9050600061190685611dde565b9050611916838989858589611b0e565b600080600088815260200190815260200160002060008a73ffffffffffffffffffffffffffffffffffffffff1673ffffffffffffffffffffffffffffffffffffffff168152602001908152602001600020549050858110156119ad576040517f08c379a00000000000000000000000000000000000000000000000000000000081526004016119a49061361e565b60405180910390fd5b85810360008089815260200190815260200160002060008b73ffffffffffffffffffffffffffffffffffffffff1673ffffffffffffffffffffffffffffffffffffffff168152602001908152602001600020819055508560008089815260200190815260200160002060008a73ffffffffffffffffffffffffffffffffffffffff1673ffffffffffffffffffffffffffffffffffffffff1681526020019081526020016000206000828254611a62919061332d565b925050819055508773ffffffffffffffffffffffffffffffffffffffff168973ffffffffffffffffffffffffffffffffffffffff168573ffffffffffffffffffffffffffffffffffffffff167fc3d58168c5ae7397731d063d5bbf3d657854427343f4c083240f7aacaa2d0f628a8a604051611adf929190613361565b60405180910390a4611af5848a8a86868a611b6c565b611b03848a8a8a8a8a611e58565b505050505050505050565b611b1c86868686868661202f565b611b24610aa5565b15611b64576040517f08c379a0000000000000000000000000000000000000000000000000000000008152600401611b5b9061380b565b60405180910390fd5b505050505050565b505050505050565b611b938473ffffffffffffffffffffffffffffffffffffffff16612037565b15611d43578373ffffffffffffffffffffffffffffffffffffffff1663bc197c8187878686866040518663ffffffff1660e01b8152600401611bd9959493929190613880565b6020604051808303816000875af1925050508015611c1557506040513d601f19601f82011682018060405250810190611c1291906138fd565b60015b611cba57611c21613937565b806308c379a003611c7d5750611c35613959565b80611c405750611c7f565b806040517f08c379a0000000000000000000000000000000000000000000000000000000008152600401611c7491906122e4565b60405180910390fd5b505b6040517f08c379a0000000000000000000000000000000000000000000000000000000008152600401611cb190613a5b565b60405180910390fd5b63bc197c8160e01b7bffffffffffffffffffffffffffffffffffffffffffffffffffffffff1916817bffffffffffffffffffffffffffffffffffffffffffffffffffffffff191614611d41576040517f08c379a0000000000000000000000000000000000000000000000000000000008152600401611d3890613aed565b60405180910390fd5b505b505050505050565b611d53610aa5565b611d92576040517f08c379a0000000000000000000000000000000000000000000000000000000008152600401611d8990613b59565b60405180910390fd5b565b611d9c610aa5565b15611ddc576040517f08c379a0000000000000000000000000000000000000000000000000000000008152600401611dd390613bc5565b60405180910390fd5b565b60606000600167ffffffffffffffff811115611dfd57611dfc61233d565b5b604051908082528060200260200182016040528015611e2b5781602001602082028036833780820191505090505b5090508281600081518110611e4357611e42612eb2565b5b60200260200101818152505080915050919050565b611e778473ffffffffffffffffffffffffffffffffffffffff16612037565b15612027578373ffffffffffffffffffffffffffffffffffffffff1663f23a6e6187878686866040518663ffffffff1660e01b8152600401611ebd959493929190613be5565b6020604051808303816000875af1925050508015611ef957506040513d601f19601f82011682018060405250810190611ef691906138fd565b60015b611f9e57611f05613937565b806308c379a003611f615750611f19613959565b80611f245750611f63565b806040517f08c379a0000000000000000000000000000000000000000000000000000000008152600401611f5891906122e4565b60405180910390fd5b505b6040517f08c379a0000000000000000000000000000000000000000000000000000000008152600401611f9590613a5b565b60405180910390fd5b63f23a6e6160e01b7bffffffffffffffffffffffffffffffffffffffffffffffffffffffff1916817bffffffffffffffffffffffffffffffffffffffffffffffffffffffff191614612025576040517f08c379a000000000000000000000000000000000000000000000000000000000815260040161201c90613aed565b60405180910390fd5b505b505050505050565b505050505050565b6000808273ffffffffffffffffffffffffffffffffffffffff163b119050919050565b6000604051905090565b600080fd5b600080fd5b600073ffffffffffffffffffffffffffffffffffffffff82169050919050565b60006120998261206e565b9050919050565b6120a98161208e565b81146120b457600080fd5b50565b6000813590506120c6816120a0565b92915050565b6000819050919050565b6120df816120cc565b81146120ea57600080fd5b50565b6000813590506120fc816120d6565b92915050565b6000806040838503121561211957612118612064565b5b6000612127858286016120b7565b9250506020612138858286016120ed565b9150509250929050565b61214b816120cc565b82525050565b60006020820190506121666000830184612142565b92915050565b60007fffffffff0000000000000000000000000000000000000000000000000000000082169050919050565b6121a18161216c565b81146121ac57600080fd5b50565b6000813590506121be81612198565b92915050565b6000602082840312156121da576121d9612064565b5b60006121e8848285016121af565b91505092915050565b60008115159050919050565b612206816121f1565b82525050565b600060208201905061222160008301846121fd565b92915050565b60006020828403121561223d5761223c612064565b5b600061224b848285016120ed565b91505092915050565b600081519050919050565b600082825260208201905092915050565b60005b8381101561228e578082015181840152602081019050612273565b60008484015250505050565b6000601f19601f8301169050919050565b60006122b682612254565b6122c0818561225f565b93506122d0818560208601612270565b6122d98161229a565b840191505092915050565b600060208201905081810360008301526122fe81846122ab565b905092915050565b60006020828403121561231c5761231b612064565b5b600061232a848285016120b7565b91505092915050565b600080fd5b600080fd5b7f4e487b7100000000000000000000000000000000000000000000000000000000600052604160045260246000fd5b6123758261229a565b810181811067ffffffffffffffff821117156123945761239361233d565b5b80604052505050565b60006123a761205a565b90506123b3828261236c565b919050565b600067ffffffffffffffff8211156123d3576123d261233d565b5b6123dc8261229a565b9050602081019050919050565b82818337600083830152505050565b600061240b612406846123b8565b61239d565b90508281526020810184848401111561242757612426612338565b5b6124328482856123e9565b509392505050565b600082601f83011261244f5761244e612333565b5b813561245f8482602086016123f8565b91505092915050565b60006020828403121561247e5761247d612064565b5b600082013567ffffffffffffffff81111561249c5761249b612069565b5b6124a88482850161243a565b91505092915050565b600067ffffffffffffffff8211156124cc576124cb61233d565b5b602082029050602081019050919050565b600080fd5b60006124f56124f0846124b1565b61239d565b90508083825260208201905060208402830185811115612518576125176124dd565b5b835b81811015612541578061252d88826120ed565b84526020840193505060208101905061251a565b5050509392505050565b600082601f8301126125605761255f612333565b5b81356125708482602086016124e2565b91505092915050565b600067ffffffffffffffff8211156125945761259361233d565b5b61259d8261229a565b9050602081019050919050565b60006125bd6125b884612579565b61239d565b9050828152602081018484840111156125d9576125d8612338565b5b6125e48482856123e9565b509392505050565b600082601f83011261260157612600612333565b5b81356126118482602086016125aa565b91505092915050565b600080600080600060a0868803121561263657612635612064565b5b6000612644888289016120b7565b9550506020612655888289016120b7565b945050604086013567ffffffffffffffff81111561267657612675612069565b5b6126828882890161254b565b935050606086013567ffffffffffffffff8111156126a3576126a2612069565b5b6126af8882890161254b565b925050608086013567ffffffffffffffff8111156126d0576126cf612069565b5b6126dc888289016125ec565b9150509295509295909350565b600067ffffffffffffffff8211156127045761270361233d565b5b602082029050602081019050919050565b6000612728612723846126e9565b61239d565b9050808382526020820190506020840283018581111561274b5761274a6124dd565b5b835b81811015612774578061276088826120b7565b84526020840193505060208101905061274d565b5050509392505050565b600082601f83011261279357612792612333565b5b81356127a3848260208601612715565b91505092915050565b600080604083850312156127c3576127c2612064565b5b600083013567ffffffffffffffff8111156127e1576127e0612069565b5b6127ed8582860161277e565b925050602083013567ffffffffffffffff81111561280e5761280d612069565b5b61281a8582860161254b565b9150509250929050565b600081519050919050565b600082825260208201905092915050565b6000819050602082019050919050565b612859816120cc565b82525050565b600061286b8383612850565b60208301905092915050565b6000602082019050919050565b600061288f82612824565b612899818561282f565b93506128a483612840565b8060005b838110156128d55781516128bc888261285f565b97506128c783612877565b9250506001810190506128a8565b5085935050505092915050565b600060208201905081810360008301526128fc8184612884565b905092915050565b6000806040838503121561291b5761291a612064565b5b600083013567ffffffffffffffff81111561293957612938612069565b5b6129458582860161243a565b9250506020612956858286016120ed565b9150509250929050565b6129698161208e565b82525050565b60006020820190506129846000830184612960565b92915050565b612993816121f1565b811461299e57600080fd5b50565b6000813590506129b08161298a565b92915050565b600080604083850312156129cd576129cc612064565b5b60006129db858286016120b7565b92505060206129ec858286016129a1565b9150509250929050565b60008060008060808587031215612a1057612a0f612064565b5b6000612a1e878288016120b7565b9450506020612a2f878288016120ed565b9350506040612a40878288016120ed565b925050606085013567ffffffffffffffff811115612a6157612a60612069565b5b612a6d8782880161243a565b91505092959194509250565b60008060408385031215612a9057612a8f612064565b5b6000612a9e858286016120b7565b9250506020612aaf858286016120b7565b9150509250929050565b600080600080600060a08688031215612ad557612ad4612064565b5b6000612ae3888289016120b7565b9550506020612af4888289016120b7565b9450506040612b05888289016120ed565b9350506060612b16888289016120ed565b925050608086013567ffffffffffffffff811115612b3757612b36612069565b5b612b43888289016125ec565b9150509295509295909350565b7f455243313135353a2061646472657373207a65726f206973206e6f742061207660008201527f616c6964206f776e657200000000000000000000000000000000000000000000602082015250565b6000612bac602a8361225f565b9150612bb782612b50565b604082019050919050565b60006020820190508181036000830152612bdb81612b9f565b9050919050565b7f4e487b7100000000000000000000000000000000000000000000000000000000600052602260045260246000fd5b60006002820490506001821680612c2957607f821691505b602082108103612c3c57612c3b612be2565b5b50919050565b600081905092915050565b60008190508160005260206000209050919050565b60008154612c6f81612c11565b612c798186612c42565b94506001821660008114612c945760018114612ca957612cdc565b60ff1983168652811515820286019350612cdc565b612cb285612c4d565b60005b83811015612cd457815481890152600182019150602081019050612cb5565b838801955050505b50505092915050565b6000612cf18284612c62565b915081905092915050565b7f4e6674436f6e74726163743a206f776e65722063616e6e6f742072656d6f766560008201527f207468656d73656c7665732061732061646d696e000000000000000000000000602082015250565b6000612d5860348361225f565b9150612d6382612cfc565b604082019050919050565b60006020820190508181036000830152612d8781612d4b565b9050919050565b7f455243313135353a2063616c6c6572206973206e6f7420746f6b656e206f776e60008201527f6572206f7220617070726f766564000000000000000000000000000000000000602082015250565b6000612dea602e8361225f565b9150612df582612d8e565b604082019050919050565b60006020820190508181036000830152612e1981612ddd565b9050919050565b7f455243313135353a206163636f756e747320616e6420696473206c656e67746860008201527f206d69736d617463680000000000000000000000000000000000000000000000602082015250565b6000612e7c60298361225f565b9150612e8782612e20565b604082019050919050565b60006020820190508181036000830152612eab81612e6f565b9050919050565b7f4e487b7100000000000000000000000000000000000000000000000000000000600052603260045260246000fd5b7f4e487b7100000000000000000000000000000000000000000000000000000000600052601160045260246000fd5b6000612f1b826120cc565b91507fffffffffffffffffffffffffffffffffffffffffffffffffffffffffffffffff8203612f4d57612f4c612ee1565b5b600182019050919050565b60006020601f8301049050919050565b600082821b905092915050565b600060088302612fa57fffffffffffffffffffffffffffffffffffffffffffffffffffffffffffffffff82612f68565b612faf8683612f68565b95508019841693508086168417925050509392505050565b6000819050919050565b6000612fec612fe7612fe2846120cc565b612fc7565b6120cc565b9050919050565b6000819050919050565b61300683612fd1565b61301a61301282612ff3565b848454612f75565b825550505050565b600090565b61302f613022565b61303a818484612ffd565b505050565b5b8181101561305e57613053600082613027565b600181019050613040565b5050565b601f8211156130a35761307481612c4d565b61307d84612f58565b8101602085101561308c578190505b6130a061309885612f58565b83018261303f565b50505b505050565b600082821c905092915050565b60006130c6600019846008026130a8565b1980831691505092915050565b60006130df83836130b5565b9150826002028217905092915050565b6130f882612254565b67ffffffffffffffff8111156131115761311061233d565b5b61311b8254612c11565b613126828285613062565b600060209050601f8311600181146131595760008415613147578287015190505b61315185826130d3565b8655506131b9565b601f19841661316786612c4d565b60005b8281101561318f5784890151825560018201915060208501945060208101905061316a565b868310156131ac57848901516131a8601f8916826130b5565b8355505b6001600288020188555050505b505050505050565b7f4e6674436f6e74726163743a2063616c6c6572206973206e6f7420616e20616460008201527f6d696e0000000000000000000000000000000000000000000000000000000000602082015250565b600061321d60238361225f565b9150613228826131c1565b604082019050919050565b6000602082019050818103600083015261324c81613210565b9050919050565b600061325e82612254565b6132688185612c42565b9350613278818560208601612270565b80840191505092915050565b60006132908284613253565b915081905092915050565b7f4e6674436f6e74726163743a20746f6b656e547970652063616e6e6f7420626560008201527f20656d7074790000000000000000000000000000000000000000000000000000602082015250565b60006132f760268361225f565b91506133028261329b565b604082019050919050565b60006020820190508181036000830152613326816132ea565b9050919050565b6000613338826120cc565b9150613343836120cc565b925082820190508082111561335b5761335a612ee1565b5b92915050565b60006040820190506133766000830185612142565b6133836020830184612142565b9392505050565b7f4f776e61626c653a206e6577206f776e657220697320746865207a65726f206160008201527f6464726573730000000000000000000000000000000000000000000000000000602082015250565b60006133e660268361225f565b91506133f18261338a565b604082019050919050565b60006020820190508181036000830152613415816133d9565b9050919050565b7f4f776e61626c653a2063616c6c6572206973206e6f7420746865206f776e6572600082015250565b600061345260208361225f565b915061345d8261341c565b602082019050919050565b6000602082019050818103600083015261348181613445565b9050919050565b7f455243313135353a2069647320616e6420616d6f756e7473206c656e6774682060008201527f6d69736d61746368000000000000000000000000000000000000000000000000602082015250565b60006134e460288361225f565b91506134ef82613488565b604082019050919050565b60006020820190508181036000830152613513816134d7565b9050919050565b7f455243313135353a207472616e7366657220746f20746865207a65726f20616460008201527f6472657373000000000000000000000000000000000000000000000000000000602082015250565b600061357660258361225f565b91506135818261351a565b604082019050919050565b600060208201905081810360008301526135a581613569565b9050919050565b7f455243313135353a20696e73756666696369656e742062616c616e636520666f60008201527f72207472616e7366657200000000000000000000000000000000000000000000602082015250565b6000613608602a8361225f565b9150613613826135ac565b604082019050919050565b60006020820190508181036000830152613637816135fb565b9050919050565b600060408201905081810360008301526136588185612884565b9050818103602083015261366c8184612884565b90509392505050565b7f455243313135353a2073657474696e6720617070726f76616c2073746174757360008201527f20666f722073656c660000000000000000000000000000000000000000000000602082015250565b60006136d160298361225f565b91506136dc82613675565b604082019050919050565b60006020820190508181036000830152613700816136c4565b9050919050565b7f455243313135353a206d696e7420746f20746865207a65726f2061646472657360008201527f7300000000000000000000000000000000000000000000000000000000000000602082015250565b600061376360218361225f565b915061376e82613707565b604082019050919050565b6000602082019050818103600083015261379281613756565b9050919050565b7f455243313135355061757361626c653a20746f6b656e207472616e736665722060008201527f7768696c65207061757365640000000000000000000000000000000000000000602082015250565b60006137f5602c8361225f565b915061380082613799565b604082019050919050565b60006020820190508181036000830152613824816137e8565b9050919050565b600081519050919050565b600082825260208201905092915050565b60006138528261382b565b61385c8185613836565b935061386c818560208601612270565b6138758161229a565b840191505092915050565b600060a0820190506138956000830188612960565b6138a26020830187612960565b81810360408301526138b48186612884565b905081810360608301526138c88185612884565b905081810360808301526138dc8184613847565b90509695505050505050565b6000815190506138f781612198565b92915050565b60006020828403121561391357613912612064565b5b6000613921848285016138e8565b91505092915050565b60008160e01c9050919050565b600060033d11156139565760046000803e61395360005161392a565b90505b90565b600060443d106139e65761396b61205a565b60043d036004823e80513d602482011167ffffffffffffffff821117156139935750506139e6565b808201805167ffffffffffffffff8111156139b157505050506139e6565b80602083010160043d0385018111156139ce5750505050506139e6565b6139dd8260200185018661236c565b82955050505050505b90565b7f455243313135353a207472616e7366657220746f206e6f6e2d4552433131353560008201527f526563656976657220696d706c656d656e746572000000000000000000000000602082015250565b6000613a4560348361225f565b9150613a50826139e9565b604082019050919050565b60006020820190508181036000830152613a7481613a38565b9050919050565b7f455243313135353a204552433131353552656365697665722072656a6563746560008201527f6420746f6b656e73000000000000000000000000000000000000000000000000602082015250565b6000613ad760288361225f565b9150613ae282613a7b565b604082019050919050565b60006020820190508181036000830152613b0681613aca565b9050919050565b7f5061757361626c653a206e6f7420706175736564000000000000000000000000600082015250565b6000613b4360148361225f565b9150613b4e82613b0d565b602082019050919050565b60006020820190508181036000830152613b7281613b36565b9050919050565b7f5061757361626c653a2070617573656400000000000000000000000000000000600082015250565b6000613baf60108361225f565b9150613bba82613b79565b602082019050919050565b60006020820190508181036000830152613bde81613ba2565b9050919050565b600060a082019050613bfa6000830188612960565b613c076020830187612960565b613c146040830186612142565b613c216060830185612142565b8181036080830152613c338184613847565b9050969550505050505056fea2646970667358221220603a1a2875da8be753828e1642143abe64f0d01a3490dcd85bd9390c1165fc4964736f6c6343000813003368747470733a2f2f697066732e696f2f697066732f516d4e7731694257745068565732706d4355764e504376485472556f7a4543577451673973556a446546325667423f66696c656e616d653d342e6a70656768747470733a2f2f697066732e696f2f697066732f516d637576514638424c3558676d65617a45736f424d694d676f4639663168556369316131533975634c586856503f66696c656e616d653d352e6a70656768747470733a2f2f697066732e696f2f697066732f516d566e584133536859536d79734e416a62596b68435a6b79614350416f7577443643794e4477434c62533645773f66696c656e616d653d332e6a70656768747470733a2f2f697066732e696f2f697066732f516d56745a6b395767413164734d4d654d59567a5972484e74644852464e5155443458484e723145424553586e4e3f66696c656e616d653d322e6a70656768747470733a2f2f697066732e696f2f697066732f516d56387a7a464235645a787772357876717637527670636e34676967664a69764d51726643714e674153716f463f66696c656e616d653d382e6a70656768747470733a2f2f697066732e696f2f697066732f516d5275656a73346e56334d4d4c353331546d6a567a48797038507a376e36426d365a4e7347455134596f7177623f66696c656e616d653d372e6a70656768747470733a2f2f697066732e696f2f697066732f516d4e54536652367573485948556177365356754865566b7a3542313257583737704a507652716248767956424a3f66696c656e616d653d362e6a70656768747470733a2f2f697066732e696f2f697066732f516d54344c33667a41654e636d7035344551515131556e52597a39346b5342485370474341436d7a517734716f533f66696c656e616d653d312e6a706567",
  "linkReferences": {},
  "deployedLinkReferences": {}
}